:020000040000FA
:100000000C946D000C9495000C9495000C94950044
:100010000C9495000C9495000C9495000C9495000C
:100020000C9495000C9495000C9495000C949500FC
:100030000C9495000C9495000C9495000C949500EC
:100040000C94D3070C9495000C9495000C94950097
:100050000C9495000C9495000C9495000C949500CC
:100060000C941D080C94950032333A31393A3233EE
:10007000004E6F76203133203230323500000000E0
:1000800000240027002A0000000000250028002B83
:1000900000000000002300260029000404040404DA
:1000A0000404040202020202020303030303030125
:1000B00002040810204080010204081020010204FC
:1000C00008102000000008000201000003040700DF
:1000D0000000000000000000490911241FBECFEFFE
:1000E000D8E0DEBFCDBF22E0A0EBB1E001C01D92A1
:1000F000A03AB207E1F711E0A0E0B1E0E2E0FEE1F2
:1001000002C005900D92A03BB107D9F710E0CDE6F3
:10011000D0E004C02197FE010E94C00DCC36D1076B
:10012000C9F70E946A090C94FF0E0C940000089510
:100130000895833081F028F4813099F08230A9F05D
:1001400008958730A9F08830C9F08430B1F48091E7
:1001500080008F7D03C0809180008F778093800026
:10016000089584B58F7784BD089584B58F7DFBCFC6
:100170008091B0008F778093B00008958091B00097
:100180008F7DF9CFCF93DF93282F30E0F901ED5326
:10019000FF4F8491F901E155FF4FD491F901E556E4
:1001A000FF4FC491CC23A1F081110E949900EC2F44
:1001B000F0E0EE0FFF1FEF56FF4FA591B491EC91C9
:1001C000ED2381E090E009F480E0DF91CF91089584
:1001D00080E090E0FACF1F93CF93DF93282F30E099
:1001E000F901ED53FF4F8491F901E155FF4FD4918F
:1001F000F901E556FF4FC491CC23A9F0162F8111C8
:100200000E949900EC2FF0E0EE0FFF1FE957FF4F1F
:10021000A591B4918FB7F894EC91111108C0D095C5
:10022000DE23DC938FBFDF91CF911F910895DE2BEA
:10023000F8CFCF93DF9390E0FC01E155FF4F24917D
:1002400085569F4FFC0184918823D1F090E0880F60
:10025000991FFC01E358FF4FA591B491FC01E957A8
:10026000FF4FC591D491623071F49FB7F8943C91DF
:10027000822F809583238C93E8812E2B28839FBF28
:10028000DF91CF9108958FB7F894EC912E2B2C939A
:100290008FBFF6CF3FB7F894809107029091080284
:1002A000A0910902B0910A0226B5A89B05C02F3F74
:1002B00019F00196A11DB11D3FBFBA2FA92F982F8C
:1002C0008827BC01CD01620F711D811D911D42E087
:1002D000660F771F881F991F4A95D1F708958F924F
:1002E0009F92AF92BF92CF92DF92EF92FF924B011B
:1002F0005C010E944A016B017C010E944A016C1959
:100300007D098E099F09683E734081059105A8F318
:1003100021E0821A9108A108B10888EEC80E83E096
:10032000D81EE11CF11C81149104A104B10429F729
:10033000FF90EF90DF90CF90BF90AF909F908F9005
:100340000895AF92BF92CF92DF92EF92FF920F93F8
:100350001F93CF93DF936C017B018B01040F151F5B
:10036000EB015E01AE18BF08C017D10759F06991C3
:10037000D601ED91FC910190F081E02DC601099527
:10038000892B79F7C501DF91CF911F910F91FF90D4
:10039000EF90DF90CF90BF90AF9008950895209197
:1003A000D101260F3327331F21323105ECF4209180
:1003B0005902FC0190E080E0243069F082E0089569
:1003C000A091D1012191AC014F545E4FA40FB52FE4
:1003D000B11D2C930196861798F38091D101680F77
:1003E0006093D10180E0089581E008951092590250
:1003F00081E0809358021092330261E082E10E9412
:10040000EB0061E083E10E94EB00E9EBF0E080812A
:100410008E7F808380818D7F808388E48093B80085
:1004200085E48093BC0008951092100210920F0290
:1004300010926002109282020E94F60187E990E019
:1004400090930E0280930D0288E990E090930C0245
:1004500080930B020895CF93DF9391E09093B001C6
:100460008823B9F0C091B800D091BA008091BC0047
:100470008A7B8093BC0060E082E10E94EB0060E038
:1004800083E10E94EB000E94F601D093BA00C09372
:10049000B800DF91CF9108958F929F92AF92BF9253
:1004A000CF92DF92EF92FF920F931F93CF93DF9340
:1004B000D0918202D13208F0D7C0182FC0918102AA
:1004C0000E944A016B017C018091590281116BC02D
:1004D00082E080935902109358028FEF8093570265
:1004E00010925602D0935502A1E6B2E0E5E3F2E0A5
:1004F00080E0D81391C01092340280913402CC0F66
:10050000C82BC093340280913302813009F088C037
:10051000109233020E944A016B017C0180913402E7
:100520008093BB0080915B0290915C02A0915D0280
:10053000B0915E02892B8A2B8B2BA1F00E944A017D
:1005400000915B0210915C0220915D0230915E028D
:100550006C197D098E099F090617170728073907A7
:1005600008F442C08091BC0083FDD8CF85EC809315
:10057000BC000E944A016B017C01809159028230CB
:1005800009F450C0809157028F3F09F46FC08091E9
:100590005702803209F46CC080915702803309F40D
:1005A00069C084E026C080915B0290915C02A091BA
:1005B0005D02B0915E02892B8A2B8B2B09F484CFCC
:1005C0000E944A0180905B0290905C02A0905D02C4
:1005D000B0905E026C197D098E099F0986169706F8
:1005E000A806B90608F070CF80915A020E942B022B
:1005F00085E0109260021092820210925F02DF91F9
:10060000CF911F910F91FF90EF90DF90CF90BF900F
:10061000AF909F908F9008959D9191938F5F69CF38
:1006200085EEA5CF80915B0290915C02A0915D0266
:10063000B0915E02892B8A2B8B2B09F49ECF0E94EE
:100640004A0100915B0210915C0220915D023091A1
:100650005E026C197D098E099F0906171707280786
:10066000390708F08ACFC0CF81E0C3CF80E0C1CF87
:1006700082E0BFCF83E0BDCF1F93CF93DF93EA012A
:10068000122FDC0111968D919C91DC01ED91FC9172
:100690000280F381E02D0995C817D90729F4812F2D
:1006A0000E944C0291E0811190E0892FDF91CF915F
:1006B0001F910895CF93DF93EC018B818823A1F0E4
:1006C000888191E090935F02809381021092600292
:1006D0001092820281E00E944C0291E0811190E030
:1006E000892FDF91CF9108950E94140281E08B83BE
:1006F000CE010E945A03982F8111E2CFF1CF0895C5
:10070000E091100280910F02E81730F4F0E0EF5E04
:10071000FD4F808190E008958FEF9FEF08959091B5
:10072000100280910F022FEF3FEF981748F4E92F46
:10073000F0E0EF5EFD4F208130E09F5F909310026C
:10074000C901089580910F0290911002891B990BA5
:100750000895CF92DF92EF92FF920F931F93CF9362
:10076000DF937C01CB018A0120915F02222389F073
:10077000EB016B01C40ED51ECC15DD0569F0699146
:10078000D701ED91FC910190F081E02DC701099511
:10079000F3CF642F0E94CF01C801DF91CF911F9149
:1007A0000F91FF90EF90DF90CF900895CF93DF935C
:1007B0001F92CDB7DEB7698320915F022223F9F043
:1007C00020918202203258F021E030E0FC01338396
:1007D000228390E080E00F90DF91CF910895809187
:1007E0006002E82FF0E0EF59FD4F998190838F5F11
:1007F000809360028093820281E090E0ECCF61E020
:10080000CE0101960E94CF01F7CFFC01248131E097
:1008100030935F0220938102109260021092820254
:100820008485682B83E892E00E94D60381E00C94D3
:100830004C0290E080E008952091FF013091000289
:10084000A9014D7F4130510581F42091FD01309186
:10085000FE01820F931F489668E170E00E948A0DA6
:100860009093FE018093FD0108952230310519F027
:100870002430310579F42091FB013091FC01820F85
:10088000931FCC966CE370E00E948A0D9093FC015C
:100890008093FB0108950F931F93CF93DF93CDB700
:1008A000DEB728970FB6F894DEBF0FBECDBFDC01D0
:1008B0008E010F5F1F4F86E0F80111928A95E9F7CC
:1008C00015963C9115972AE0832F622F0E947E0D8A
:1008D000982F880F890F880F830F8A8314963C9175
:1008E0001497832F0E947E0D982F880F890F880FF1
:1008F000830F8B8313963C911397832F0E947E0D59
:10090000982F880F890F880F830F8C8312963C9144
:100910001297832F0E947E0D982F880F890F880FC2
:10092000830F8E8311963C911197832F0E947E0D29
:10093000982F880F890F880F830F8F833C91832F07
:100940000E947E0D982F880F890F880F830F88874C
:100950008091310290913202FC012481358128304E
:10096000310580F0208131E030935F0220938102D5
:10097000109260021092820221E048E050E0B8013B
:100980000E943C0328960FB6F894DEBF0FBECDBF81
:10099000DF91CF911F910F9108952F923F924F9227
:1009A0005F926F927F928F929F92AF92BF92CF92FF
:1009B000DF92EF92FF920F931F93CF93DF935C012F
:1009C0001B016A01F12CE12CD50114968D919C91AB
:1009D00086010E191F098017910708F48C01F50193
:1009E000D0810E944A012B013C0180915902811162
:1009F00072C0C02F013208F0C0E2F1E0F09359025A
:100A000021E0C601801B910BE816F90608F420E0EE
:100A1000209358028FEF80935702109256028C0F4A
:100A200080935502A1E0A093340280913402DD0F3F
:100A3000D82BD093340280913302813009F090C0DA
:100A4000109233020E944A012B013C018091340232
:100A50008093BB0080915B0290915C02A0915D024B
:100A6000B0915E02892B8A2B8B2BA1F00E944A0148
:100A700020915B0230915C0240915D0250915E02D8
:100A80006419750986099709261737074807590712
:100A900008F442C08091BC0083FDD8CFB5ECB09380
:100AA000BC000E944A012B013C0180915902813017
:100AB00009F45AC0809156028C1710F4C091560266
:100AC000A5E3B2E0E1E1F2E080E08C1751F19D9105
:100AD00091938F5FFACF80915B0290915C02A0911D
:100AE0005D02B0915E02892B8A2B8B2B09F47DCF9E
:100AF0000E944A0120915B0230915C0240915D02AC
:100B000050915E02641975098609970926173707FF
:100B10004807590708F069CF80915A020E942B02BA
:100B2000C0E010921002C0930F02C017110609F026
:100B300057C041018E0C9F1CE401CE018819990910
:100B40008017910798F5D50111968D919C91DC0144
:100B5000ED91FC910284F385E02D09958993EDCF09
:100B6000E5EEE093BC009DCF80915B0290915C022A
:100B7000A0915D02B0915E02892B8A2B8B2B09F428
:100B800094CF0E944A0120915B0230915C02409117
:100B90005D0250915E02641975098609970926174E
:100BA00037074807590708F080CFB6CFE00EF11E8F
:100BB000EC14FD0408F408CF81E0DF91CF911F9180
:100BC0000F91FF90EF90DF90CF90BF90AF909F90EC
:100BD0008F907F906F905F904F903F902F900895EF
:100BE00080E0EBCFEF92FF920F931F93CF93DF93B1
:100BF00000D000D000D01F92CDB7DEB78C01198293
:100C0000E0903102F0903202D70114968D919C91C0
:100C10001597892BE9F08C9191E090935F02809376
:100C20008102109260021092820220E041E050E0C6
:100C3000BE016F5F7F4FC7010E943C03882341F0D4
:100C400047E050E0BE016F5F7F4FC7010E94CD04B7
:100C5000E981EF77FA81FB804D815E818F81282FBA
:100C600030E094E0359527959A95E1F7922F990F0A
:100C7000990F291B220F280FD8012C93852F90E064
:100C800024E0959587952A95E1F7982F990F990F6C
:100C9000891B880F850F11968C931197642F70E034
:100CA00034E0759567953A95E1F7862F880F880FA0
:100CB000681B660F640F12966C9312974F2D50E0CD
:100CC00064E0559547956A95E1F7842F880F880F62
:100CD000481B440F4F0D13964C9313972F2F30E062
:100CE00074E0359527957A95E1F7822F880F880F64
:100CF000281B220F2F0F14962C9314978E2F90E001
:100D0000F4E095958795FA95E1F7982F990F990F4B
:100D1000891B880F8E0F15968C93C80127960FB6E6
:100D2000F894DEBF0FBECDBFDF91CF911F910F9121
:100D3000FF90EF9008950F931F93CF938C01C62FD0
:100D40000E9405046C2F6460C8010E9405046C2F8A
:100D50006B7FC8010E94050483EC90E00197F1F7D6
:100D6000CF911F910F9108950F931F93CF93DF930E
:100D70008C01D62FC42F607F642B0E949B0680E1DC
:100D8000D89FB00111246C2BC801DF91CF911F9126
:100D90000F910C949B06CF93DF93CDB7DEB72897C6
:100DA0000FB6F894DEBF0FBECDBF98E0E9E0F1E0EA
:100DB000DE01119601900D929A95E1F790919702BC
:100DC000981708F48FEF90E0880F991F21E030E02A
:100DD0002C0F3D1F820F931FFC016081606840E073
:100DE0008FE892E028960FB6F894DEBF0FBECDBF15
:100DF000DF91CF910C94B40640E061E08FE892E07F
:100E00000E94B4068BE39FE10197F1F7809198026D
:100E1000882319F080E00C94CB06089541E00E94ED
:100E2000B40681E090E008958F929F92AF92BF92B6
:100E30000F931F93CF93DF93CDB7DEB7A1970FB674
:100E4000F894DEBF0FBECDBF19A2423008F44AE0CD
:100E50008E010F5D1F4F842E912CB12CA12CA5016A
:100E600094010E949E0DE62FB901CA01EA3044F5B3
:100E7000E05DD801EE938D01232B242B252B79F7F0
:100E800090E080E0109769F0FD0101900020E9F703
:100E90003197AF014A1B5B0BBD018FE892E00E94C6
:100EA000A101A1960FB6F894DEBF0FBECDBFDF91B2
:100EB000CF911F910F91BF90AF909F908F90089509
:100EC000E95CD7CFCF92DF92EF92FF926C018AE07C
:100ED000C816D10434F441E060E38FE892E00E9448
:100EE000B4060D2C000CEE08FF084AE0C701B6015D
:100EF000F7FE0EC041E06DE28FE892E00E94B4067A
:100F000066277727CB016C197D098E099F094AE076
:100F1000FF90EF90DF90CF900C941407FC010190AC
:100F20000020E9F73197AF01481B590BBC018FE84E
:100F300092E00C94A10185ED8093BC0080915B024E
:100F400090915C02A0915D02B0915E020796A11D96
:100F5000B11D23E0B695A795979587952A95D1F76A
:100F60002091BC0024FD03C01092590208954091C5
:100F70005B0250915C0260915D0270915E02452BB4
:100F8000462B472B69F30097A105B10541F02AE2F2
:100F90002A95F1F700C00197A109B109E1CF80912D
:100FA0005A020C942B021F920F920FB60F9211242B
:100FB0002F933F938F939F93AF93BF93809103029F
:100FC00090910402A0910502B091060230910202B4
:100FD00023E0230F2D3758F50196A11DB11D209355
:100FE00002028093030290930402A0930502B0933F
:100FF00006028091070290910802A0910902B09127
:101000000A020196A11DB11D809307029093080268
:10101000A0930902B0930A02BF91AF919F918F9163
:101020003F912F910F900FBE0F901F90189526E8BB
:10103000230F0296A11DB11DD2CF1F920F920FB6A2
:101040000F9211242F933F934F935F936F937F934E
:101050008F939F93AF93BF93EF93FF938091B900CA
:10106000887F803609F44AC0F0F5883209F4A7C0B9
:1010700018F5803109F49BC0B8F4882309F4F9C04D
:10108000883009F494C0FF91EF91BF91AF919F9187
:101090008F917F916F915F914F913F912F910F9021
:1010A0000FBE0F901F901895883109F488C08032C8
:1010B00051F78093570214C0803409F49DC040F466
:1010C0008033B9F38833F9F68093570285ECB0C0CA
:1010D000803509F485C0883509F496C0883499F6BE
:1010E0000E949B07D0CF883909F48CC038F5883727
:1010F00029F050F4883611F0803729F683E0809388
:1011000059021092F30157C0883809F47BC0803926
:1011100019F0803809F0B7CF8091F301803208F0E0
:1011200071C0E091F30181E08E0F8093F301809113
:10113000BB00F0E0ED52FE4F80833DC0803B39F0B4
:10114000E0F4803A09F479C0883A09F09CCF84E051
:10115000809359021092D2011092D101E0910D02B8
:10116000F0910E0209958091D10181110FC081E0AB
:101170008093D1011092B10109C0803C09F4A6CF3F
:10118000883C09F4A3CF883B09F07DCFE091D201E0
:1011900081E08E0F8093D201F0E0EF54FE4F80810A
:1011A0008093BB009091D2018091D10129C08091A0
:1011B00034028093BB0085EC8093BC0064CF909197
:1011C000560280915502981758F5E091560281E039
:1011D0008E0F80935602F0E0EB5CFD4F8081E9CFEB
:1011E000E091560281E08E0F809356028091BB0001
:1011F000F0E0EB5CFD4F80839091560280915502A8
:101200009817C8F285E8D8CFE091560281E08E0F9A
:10121000809356028091BB00F0E0EB5CFD4F808331
:101220008091580281115CCF81E08093330284EA7F
:101230008093BC001092590226CF85EC8093BC00AD
:10124000109259028091F301803230F4E091F30161
:10125000F0E0ED52FE4F10826091F30170E0E091FA
:101260000B02F0910C0283ED91E009951092F301CD
:101270000ACF1092570234CFFC01908190539A30DC
:1012800008F090E0818180532AE0929F800D112424
:101290000895E3E8F2E01382128288EE93E0A0E082
:1012A000B0E084839583A683B78385E191E0918341
:1012B0008083EFE8F2E01382128287E291E091836B
:1012C0008083118687E2848380E1828782E083873E
:1012D00014860895CF93DF93CDB7DEB762970FB62C
:1012E000F894DEBF0FBECDBF789484B5826084BD14
:1012F00084B5816084BD85B5826085BD85B581601A
:1013000085BD80916E00816080936E001092810097
:101310008091810082608093810080918100816052
:101320008093810080918000816080938000809113
:10133000B10084608093B1008091B000816080939F
:10134000B00080917A00846080937A0080917A0066
:10135000826080937A0080917A00816080937A0025
:1013600080917A00806880937A001092C10062E0D8
:1013700086E00E94190162E085E00E94190162E0A6
:1013800084E00E94190162E083E00E94190161E09B
:1013900082E00E94190160E082E00E94EB000E945E
:1013A00014021092940280919A02823018F098E010
:1013B000909394028093970262E370E080E090E063
:1013C0000E946F0160919B028FE892E00E940504E9
:1013D00068EE73E080E090E00E946F0160E38FE8C8
:1013E00092E00E949B060BE416E4C8010197F1F716
:1013F00060E38FE892E00E949B06C8010197F1F735
:1014000060E38FE892E00E949B0683E592E00197FB
:10141000F1F760E28FE892E00E949B0660919402EF
:10142000606240E08FE892E00E94B40684E080931E
:10143000950240E06CE08FE892E00E94B4060E94C2
:10144000FC0682E08093960240E066E08FE892E03E
:101450000E94B40640E062E08FE892E00E94B40689
:101460008BE39FE10197F1F788E080939B0260E0B6
:101470008FE892E00E94050480913102909132023F
:10148000009711F00E94760E86E090E00E94DA0D3F
:101490008C0188E6F801808383E892E0928381835F
:1014A000138280E290E0958384831093320200934C
:1014B00031020E941402FF24F394F801F382C80160
:1014C0000E945A03811105C08AE591E00E948E07AF
:1014D000FFCF1A8A8091310290913202FC0124815F
:1014E0003581232B89F02081F0925F0220938102C5
:1014F000109260021092820221E041E050E0BE01B1
:101500006E5E7F4F0E943C0341E050E0BE016F5F82
:101510007F4F80913102909132020E94CD048981E7
:1015200090E0880F892F881F990B892B09F455C0EB
:101530004BE050E061E770E0CE0101960E94750D2E
:10154000CE010A960E943C098C87E981E154E3317F
:1015500020F50E2E000CFF0BE055F54F0C94C00D3E
:10156000CC0BCD0ACD0AE00BCD0ACA0BCD0ACD0AB1
:10157000CD0AC30ACD0ACD0AD30BDE0BDC0BCD0A94
:10158000CD0ACD0ADA0B8A81813609F4FFC08B813E
:101590008E3609F0FDC086E08D87CE0105960E944B
:1015A0003C098E8748E050E068E670E0CE01019685
:1015B0000E94750DCE0101960E943C098F87CE01D5
:1015C00004960E943C09888BCE0107960E943C0934
:1015D000898BCE010C960E944B0401E010E093E051
:1015E000E92EF12C24E0C22ED12C32E0A32EB12C16
:1015F0007724739480E0882E80E0982E86E00E9405
:10160000C2004091F5015091F6016091F70170918F
:10161000F801892B09F0D6C0452B462B472B99F4AE
:101620002FB7F8948091030290910402A0910502D3
:10163000B09106022FBF8093F5019093F601A0931D
:10164000F701B093F8018091F40181113BC02FB7ED
:10165000F8948091030290910402A0910502B09148
:1016600006022FBF4091F5015091F6016091F701FC
:101670007091F801841B950BA60BB70B813D974029
:10168000A105B105F8F08091FF0190910002892B2E
:10169000C9F4609002016724609202017092F40123
:1016A0000E94FC068FE291E0611002C089E391E0A4
:1016B0000E948E0768EE73E080E090E00E946F0168
:1016C0000E94FC0685E00E94C200892B51F481E053
:1016D00090E00E941C0468EC70E080E090E00E94C2
:1016E0006F0184E00E94C200892B51F48FEF9FEFBD
:1016F0000E941C0468EC70E080E090E00E946F01A2
:1017000083E00E94C200892B99F48091FF0190919F
:1017100000028230910509F4F0C008F0C8C00197BA
:1017200009F4E6C06AEF70E080E090E00E946F018B
:1017300080910102882309F40AC180E00E94CB064F
:101740008EE791E00E948E0781E00E94CB0689E837
:1017500091E00E948E0761E082E00E94EB0064E667
:1017600070E080E090E00E946F0160E082E00E9403
:10177000EB0064E670E080E090E00E946F0181146D
:10178000910409F43BCF0E94000032CF81E004CFE6
:1017900087E002CF82E000CF8B81823711F484E0B2
:1017A000FBCE88E0F9CE8B81823711F483E0F4CE52
:1017B00085E0F2CE89E0F0CE8AE0EECE8BE0ECCE92
:1017C0008CE0EACE452B462B472B09F47BCF80914A
:1017D000F401811128C02FB7F894809103029091F1
:1017E0000402A0910502B09106022FBF4091F501BD
:1017F0005091F6016091F7017091F801841B950BEF
:10180000A60BB70B883E9340A105B10560F480910B
:101810000102882399F01092010260E082E00E94A8
:10182000EB000E94FC061092F5011092F601109256
:10183000F7011092F8011092F40144CF0E94FC06C7
:101840008091FF01909100020097B9F0039750F545
:10185000CE0101960E94F2058C8190E09093FE01EA
:101860008093FD018D8190E09093FC018093FB01BA
:10187000F0920002E092FF01D6CF10930002009395
:10188000FF0180910001909101019093FE018093EE
:10189000FD018091F9019091FA019093FC018093F0
:1018A000FB01C1CF109200021092FF01BCCF833028
:1018B000910509F447C0049709F034CFCE010C9686
:1018C0000E94F2058091FB019091FD012E853D85DE
:1018D0004C8549833A832B839C838D831E82CE0162
:1018E00001960E944B040E94FC0682E791E01BC017
:1018F000B0920002A092FF0115CF8091FD0190915E
:10190000FE0190930101809300018091FB01909171
:10191000FC019093FA018093F901709202010E94F8
:10192000FC0685E691E00E948E0760E273E080E0AD
:1019300090E00E946F010E94FC061092000210923B
:10194000FF01F0CED0920002C092FF01EBCE809159
:10195000FF01909100028330910598F50197C8F13D
:1019600080E00E94CB068CE991E00E948E0781E026
:101970000E94CB068091FF0190910002019709F02F
:1019800086C088E591E00E948E078091FD019091CC
:10199000FE010E9462078AE991E00E948E07809111
:1019A000FF0190910002029709F099C088E591E04B
:1019B0000E948E078091FB019091FC010E946207BA
:1019C00003C0059708F466C062E370E080E090E031
:1019D000D4CECE0101960E94F20580E00E94CB0693
:1019E00084E991E00E948E078C8190E00E9462075A
:1019F0008AE991E00E948E078D8190E00E94620743
:101A00008AE991E00E948E078E8190E00E94620731
:101A100081E00E94CB06809102018823A9F184E431
:101A200091E00E948E0780910001909101010E9437
:101A300062078AE991E00E948E078091F9019091F6
:101A4000FA010E94620780910201882309F4BCCF49
:101A5000CE0101960E94F2052C81809100019091A7
:101A600001012817190609F0AFCF2D818091F901E6
:101A70009091FA012817190609F0A6CF8E818111DD
:101A8000A3CF70920102A0CF8EE491E0CACF8EEA7C
:101A900091E079CF80E00E94CB0686EA91E00E9437
:101AA0008E0781E00E94CB068091FF019091000299
:101AB0000397C1F488E591E00E948E078091FD01B3
:101AC0009091FE010E9462078AE991E00E948E07D0
:101AD0008091FF0190910002049709F467CF8EEA8C
:101AE00091E066CF8EEA91E0E7CFFB01DC0102C016
:101AF00005900D9241505040D8F70895991B79E018
:101B000004C0991F961708F0961B881F7A95C9F78D
:101B10008095089597FB072E16F4009407D077FD63
:101B200009D00E94C60D07FC05D03EF49095819522
:101B30009F4F0895709561957F4F0895A1E21A2EE9
:101B4000AA1BBB1BFD010DC0AA1FBB1FEE1FFF1F61
:101B5000A217B307E407F50720F0A21BB30BE40BB1
:101B6000F50B661F771F881F991F1A9469F76095F8
:101B70007095809590959B01AC01BD01CF010895B2
:101B8000EE0FFF1F0590F491E02D0994AA1BBB1BDB
:101B900051E107C0AA1FBB1FA617B70710F0A61B6D
:101BA000B70B881F991F5A95A9F780959095BC018E
:101BB000CD0108950F931F93CF93DF93823091054A
:101BC00010F482E090E0E0919E02F0919F0230E0FC
:101BD00020E0B0E0A0E0309799F42115310509F438
:101BE0004AC0281B390B24303105D8F58A819B81E6
:101BF0006115710589F1FB0193838283FE0111C098
:101C0000408151810281138148175907E0F048173C
:101C1000590799F4109761F012960C931297139646
:101C20001C933296CF01DF91CF911F910F910895B0
:101C300000939E0210939F02F4CF2115310551F0BD
:101C40004217530738F0A901DB019A01BD01DF01FA
:101C5000F801C1CFEF01F9CF90939F0280939E02CC
:101C6000CDCFFE01E20FF31F8193919322503109F2
:101C700039832883D7CF20919C0230919D02232B5A
:101C800041F4209105013091060130939D0220938B
:101C90009C0220910301309104012115310541F48A
:101CA0002DB73EB74091070150910801241B350B19
:101CB000E0919C02F0919D02E217F307A0F42E1B25
:101CC0003F0B2817390778F0AC014E5F5F4F2417A0
:101CD000350748F04E0F5F1F50939D0240939C02C2
:101CE000819391939FCFF0E0E0E09CCFCF93DF937F
:101CF0000097E9F0FC01329713821282A0919E02B4
:101D0000B0919F02ED0130E020E01097A1F4208116
:101D10003181820F931F20919C0230919D022817E0
:101D2000390709F061C0F0939D02E0939C02DF91B6
:101D3000CF910895EA01CE17DF07E8F54A815B816C
:101D40009E0141155105B1F7E901FB83EA834991F1
:101D50005991C40FD51FEC17FD0761F48081918163
:101D60000296840F951FE90199838883828193816C
:101D70009B838A83F0E0E0E012968D919C9113970B
:101D80000097B9F52D913C911197CD010296820FE4
:101D9000931F20919C0230919D022817390739F634
:101DA000309751F510929F0210929E02B0939D02BF
:101DB000A0939C02BCCFD383C28340815181840F06
:101DC000951FC817D90761F44E5F5F4F88819981CD
:101DD000480F591F518340838A819B81938382835B
:101DE0002115310509F0B0CFF0939F02E0939E02D8
:101DF0009ECFFD01DC01C0CF13821282D7CFF894B1
:101E0000FFCF0600010000A0028000000040001487
:101E100000540000000000D603A90319047F03A2A8
:101E2000038F038003000000000E07A1011904CEF8
:101E300001414C41524D3A204F4E00414C41524DD0
:101E40003A204F464600414C41524D204F4E200013
:101E5000414C41524D204F4646003E0052544320D3
:101E60004552524F522100536176656420416C61A6
:101E7000726D210054696D6520536176656421009F
:101E800057414B45205550212121005072657373F5
:101E9000204D4F44450054696D6520003A0053457C
:101EA0005420414C41524D005345542054494D4516
:021EB000200010
:107E0000112484B714BE81FFF0D085E080938100F7
:107E100082E08093C00088E18093C10086E0809377
:107E2000C20080E18093C4008EE0C9D0259A86E02C
:107E300020E33CEF91E0309385002093840096BBD3
:107E4000B09BFECF1D9AA8958150A9F7CC24DD24C4
:107E500088248394B5E0AB2EA1E19A2EF3E0BF2EE7
:107E6000A2D0813461F49FD0082FAFD0023811F036
:107E7000013811F484E001C083E08DD089C08234E0
:107E800011F484E103C0853419F485E0A6D080C0E4
:107E9000853579F488D0E82EFF2485D0082F10E0AE
:107EA000102F00270E291F29000F111F8ED06801E7
:107EB0006FC0863521F484E090D080E0DECF843638
:107EC00009F040C070D06FD0082F6DD080E0C81688
:107ED00080E7D80618F4F601B7BEE895C0E0D1E017
:107EE00062D089930C17E1F7F0E0CF16F0E7DF06D8
:107EF00018F0F601B7BEE89568D007B600FCFDCFD4
:107F0000A601A0E0B1E02C9130E011968C91119780
:107F100090E0982F8827822B932B1296FA010C0160
:107F200087BEE89511244E5F5F4FF1E0A038BF0790
:107F300051F7F601A7BEE89507B600FCFDCF97BE46
:107F4000E89526C08437B1F42ED02DD0F82E2BD052
:107F50003CD0F601EF2C8F010F5F1F4F84911BD097
:107F6000EA94F801C1F70894C11CD11CFA94CF0C13
:107F7000D11C0EC0853739F428D08EE10CD085E9AC
:107F80000AD08FE07ACF813511F488E018D01DD067
:107F900080E101D065CF982F8091C00085FFFCCF94
:107FA0009093C60008958091C00087FFFCCF809118
:107FB000C00084FD01C0A8958091C6000895E0E648
:107FC000F0E098E1908380830895EDDF803219F02E
:107FD00088E0F5DFFFCF84E1DECF1F93182FE3DFCA
:107FE0001150E9F7F2DF1F91089580E0E8DFEE27F6
:047FF000FF270994CA
:027FFE00040479
:00000001FF
