:100000000C9462000C948A000C948A000C948A0070
:100010000C948A000C948A000C948A000C948A0038
:100020000C948A000C948A000C948A000C948A0028
:100030000C948A000C948A000C948A000C948A0018
:100040000C9443030C948A000C94B3030C948D031A
:100050000C948A000C948A000C948A000C948A00F8
:100060000C948A000C948A000000000024002700F1
:100070002A000000000023002600290000000000E4
:10008000250028002B0004040404040404040202D4
:100090000202020203030303030301020408102007
:1000A0004080010204081020010204081020000012
:1000B0000008000201000003040700000000000027
:1000C0000000BC0611241FBECFEFD8E0DEBFCDBFBD
:1000D00023E0ACEAB2E001C01D92A736B207E1F717
:1000E00012E0A0E0B1E0E8E7F2E102C005900D9275
:1000F000AC3AB107D9F710E0C2E6D0E004C02197CE
:10010000FE010E944207C136D107C9F70E94E503EC
:100110000C943A090C940000CF92DF92EF92FF9278
:100120006B017C01E091D602F091D70282E08083DE
:10013000C11481EED806E104F104A1F060E079E099
:100140008DE390E0A70196010E942007215031091C
:10015000410951095695479537952795211580E115
:100160003807A8F0E091D602F091D702108260E83B
:1001700074E88EE190E0A70196010E9420072150CB
:100180003109410951095695479537952795E091D1
:10019000D202F091D3023083E091D402F091D502E3
:1001A00020831092DE02E091DA02F091DB0286E019
:1001B0008083E091D802F091D902808180618083B0
:1001C000E091D802F091D902808188608083E0912B
:1001D000D802F091D902808180688083E091D802B2
:1001E000F091D90280818F7D8083FF90EF90DF9026
:1001F000CF900895833081F028F4813099F08230D7
:10020000A9F008958730A9F08830C9F08430B1F49E
:10021000809180008F7D03C0809180008F778093D4
:100220008000089584B58F7784BD089584B58F7D4F
:10023000FBCF8091B0008F778093B00008958091BC
:10024000B0008F7DF9CF1F93CF93DF93E8EBF0E001
:100250009491E4EAF0E0D491E0E9F0E0C491CC2399
:10026000B9F0182F992319F0892F0E94FA00EC2F6A
:10027000F0E0EE0FFF1FE458FF4FA591B4918FB748
:10028000F894EC91111108C0D095DE23DC938FBF58
:10029000DF91CF911F910895DE2BF8CF3FB7F894EF
:1002A0008091C2029091C302A091C402B091C50294
:1002B00026B5A89B05C02F3F19F00196A11DB11DC1
:1002C0003FBFBA2FA92F982F8827BC01CD01620FFD
:1002D000711D811D911D42E0660F771F881F991FB8
:1002E0004A95D1F708958F929F92AF92BF92CF9285
:1002F000DF92EF92FF920E944E014B015C0184E677
:10030000C82ED12CE12CF12C0E944E0168197909DC
:100310008A099B09683E734081059105A8F321E095
:10032000C21AD108E108F10888EE880E83E0981E11
:10033000A11CB11CC114D104E104F10429F7FF9000
:10034000EF90DF90CF90BF90AF909F908F900895E7
:100350002FB7F8946091BE027091BF028091C002E5
:100360009091C1022FBF0895AF92BF92CF92DF92BA
:10037000EF92FF920F931F93CF93DF936C017B015A
:100380008B01040F151FEB015E01AE18BF08C017EB
:10039000D10759F06991D601ED91FC910190F0815E
:1003A000E02DC6010995892B79F7C501DF91CF9121
:1003B0001F910F91FF90EF90DF90CF90BF90AF9083
:1003C0000895FC01538D448D252F30E0842F90E05B
:1003D000821B930B541710F0CF9608950197089540
:1003E000FC01918D828D981761F0A28DAE0FBF2F09
:1003F000B11D5D968C91928D9F5F9F73928F90E05F
:1004000008958FEF9FEF08950F931F930E94A80107
:100410006093CE027093CF028093D0029093D1026A
:1004200086EC92E00E94F00197FF1DC00E94A80197
:100430000091CE021091CF022091D0023091D102D2
:10044000601B710B820B930B0091CA021091CB02BF
:100450002091CC023091CD0260177107820793077B
:10046000F8F28FEF9FEF1F910F910895FC01918D8E
:10047000828D981731F0828DE80FF11D858D90E007
:1004800008958FEF9FEF0895FC01918D228D892FA4
:1004900090E0805C9F4F821B91098F73992708958C
:1004A00086EC92E00E94440221E0892B09F420E0CE
:1004B000822F089580E090E0892B29F00E9450025D
:1004C00081110C9400000895FC01A48DA80FB92F90
:1004D000B11DA35ABF4F2C91848D90E001968F736C
:1004E0009927848FA689B7892C93A089B1898C918B
:1004F000837080648C93938D848D981306C00288DA
:10050000F389E02D80818F7D80830895EF92FF92A3
:100510000F931F93CF93DF93EC0181E0888F9B8D26
:100520008C8D98131AC0E889F989808185FF15C0E0
:100530009FB7F894EE89FF896083E889F989808103
:100540008370806480839FBF81E090E0DF91CF91D2
:100550001F910F91FF90EF900895F62E0B8D10E0F4
:100560000F5F1F4F0F731127E02E8C8D8E110CC063
:100570000FB607FCFACFE889F989808185FFF5CFAE
:10058000CE010E946402F1CFEB8DEC0FFD2FF11D27
:10059000E35AFF4FF0829FB7F8940B8FEA89FB89EB
:1005A00080818062CFCFCF93DF93EC01888D882349
:1005B000B9F0AA89BB89E889F9898C9185FD03C0C6
:1005C000808186FD0DC00FB607FCF7CF8C9185FFAB
:1005D000F2CF808185FFEDCFCE010E946402E9CF8A
:1005E000DF91CF9108950E94A8016093B5027093A6
:1005F000B6028093B7029093B8021092B4020895A5
:10060000FC0101900020E9F73197AF01481B590B1D
:10061000BC0186EC92E00C94B401CF93DF930E946E
:100620000003EC0180E291E00E9400038C0F9D1F0B
:10063000DF91CF9108950F931F93CF93DF93EC0138
:1006400088819981009759F02A813B8126173707C5
:1006500030F081E0DF91CF911F910F9108958B01D0
:100660006F5F7F4F0E946D08009759F099838883D0
:100670001B830A832C813D81232B59F7FC011082B7
:10068000E8CF80E0E7CF1F920F920FB60F921124B0
:100690002F933F938F939F93AF93BF938091BE020D
:1006A0009091BF02A091C002B091C1023091BD02F1
:1006B00023E0230F2D3758F50196A11DB11D20937E
:1006C000BD028093BE029093BF02A093C002B0937C
:1006D000C1028091C2029091C302A091C402B09164
:1006E000C5020196A11DB11D8093C2029093C30261
:1006F000A093C402B093C502BF91AF919F918F9117
:100700003F912F910F900FBE0F901F90189526E8E4
:10071000230F0296A11DB11DD2CF1F920F920FB6CB
:100720000F9211242F933F934F935F936F937F9377
:100730008F939F93AF93BF93EF93FF9386EC92E0D9
:100740000E946402FF91EF91BF91AF919F918F91B1
:100750007F916F915F914F913F912F910F900FBEBD
:100760000F901F9018951F920F920FB60F921124A1
:100770002F938F939F93EF93FF93E091D602F09185
:10078000D7028081E091DC02F091DD0282FD1BC086
:1007900090818091DF028F5F8F732091E00282173A
:1007A00041F0E091DF02F0E0EA53FD4F958F809336
:1007B000DF02FF91EF919F918F912F910F900FBECC
:1007C0000F901F9018958081F4CFCF93DF93CDB712
:1007D000DEB7A3970FB6F894DEBF0FBECDBF7894F7
:1007E00084B5826084BD84B5816084BD85B5826036
:1007F00085BD85B5816085BD80916E0081608093E7
:100800006E0010928100809181008260809381004F
:10081000809181008160809381008091800081605F
:10082000809380008091B10084608093B1008091BA
:10083000B00081608093B00080917A0084608093E2
:100840007A0080917A00826080937A0080917A00A9
:10085000816080937A0080917A00806880937A002A
:100860001092C100FCE92F2EF0E03F2EF1012491FF
:10087000E8E8F0E084918823C9F090E0880F991FA0
:10088000FC01E859FF4FA591B491FC01E458FF4FDA
:10089000459154919FB7F8943C91822F8095832382
:1008A0008C93FA018081282B20839FBFE4EAF0E03B
:1008B0002491E0E9F0E08491882399F090E0880F9A
:1008C000991FFC01E859FF4FA591B491FC01E45830
:1008D000FF4F859194918FB7F894EC91E22BEC93B4
:1008E0008FBFE091AC02F091AD02EE0FFF1FEE0F53
:1008F000FF1FE85EFE4F60817181828193810E94BB
:100900008C0083E291E00E940D0383E491E00E9459
:100910000D0384E591E00E940D038FE691E00E94B3
:100920000D0383E891E00E940D0389E991E00E94A4
:100930000D030E94F3025AE0852E912CA12CB12CBC
:10094000CC24C394D12CFF24F394E0EBF0E0849109
:10095000F1010491E8E8F0E01491111113C18091C4
:10096000B302811113C0F092B3020E94A8016093F8
:10097000AF027093B0028093B1029093B2021092D2
:10098000AE028091B302882309F4B1C08091AE0217
:100990008111ADC00091BB021091BC020E94A80160
:1009A0004090AF025090B0026090B1027090B202DD
:1009B0006419750986099709683B7B408105910593
:1009C00008F495C0F092AE02012B09F04AC1D09212
:1009D000BC02C092BB0286EC92E00E94D302E0917E
:1009E000D802F091D90280818F7E8083E091D80275
:1009F000F091D9028081877F8083E091D802F091C5
:100A0000D90280818F778083E091D802F091D9025A
:100A100080818F7D80838091E0028093DF020E943D
:100A20007301E091AC02F091AD02EE0FFF1FEE0FEB
:100A3000FF1FE85EFE4F60817181828193810E9479
:100A40008C000E94730189EF91E00E940D038BE1FD
:100A500092E00E940D0387E392E00E940003E09180
:100A6000AC02F091AD02EE0FFF1FEE0FFF1FE85E2C
:100A7000FE4F408051806280738077FEDCC06DE263
:100A800086EC92E00E94860222273327A9012419CE
:100A900035094609570919A28E010F5D1F4FCA017A
:100AA000B901A50194010E942007605DF8016293DD
:100AB0008F01211531054105510589F701151105F2
:100AC00019F0C8010E94000384EF91E00E940D0319
:100AD00082E492E00E940D0388E692E00E940D03FA
:100AE00080E00E9423011092BA021092B902809114
:100AF000BB029091BC02009709F0D5C00E94A801EA
:100B0000AB01BC018091B9029091BA02892B09F026
:100B1000C7C088EC90E00091B5021091B602209118
:100B2000B7023091B8022A013B01401A510A620A09
:100B3000730A93018201092E000CAA0BBB0B081744
:100B400019072A073B0778F04093B5025093B60285
:100B50006093B7027093B8028091B4028F2580939E
:100B6000B4020E94230180E0682E80E0782E67287E
:100B700009F4EBCE0E945002882309F4E4CE0E94CF
:100B80000000E1CE81110E94FA00E12FF0E0EE0FAB
:100B9000FF1FEE58FF4FA591B4918C91082309F4E3
:100BA000DECE8091B302882309F4A1CF0E94A80170
:100BB0002091AE0221112DC00091AF021091B00220
:100BC0002091B1023091B202601B710B820B930B2A
:100BD000683B7B4081059105E0F48091BB029091D8
:100BE000BC02892BB1F48091B9029091BA020196AE
:100BF0009093BA028093B9028130910569F4109202
:100C0000AD021092AC0280ED91E00E940D030E94B3
:100C1000F3021092B302B5CE0297C9F7D092AD029B
:100C2000C092AC0284EE91E00E940D031092BA02D1
:100C30001092B902ECCFA301920119A28E010F5DAF
:100C40001F4FCA01B901A50194010E942007605DF0
:100C5000F80162938F01211531054105510589F78E
:100C60002DCF1092BC021092BB0289EF91E00E943E
:100C70000D038AE892E00E940D0384E591E00E9452
:100C80000D038FE691E00E940D0383E891E00E943E
:100C90000D0388E692E00E940D030E94F30223CF29
:100CA00084EF91E038CF019709F05DCF86EC92E0B8
:100CB0000E944402181619060CF055CF1A821982A8
:100CC0001C821B821E821D8270E060E0CE010196B4
:100CD0000E941B0329813A8181112EC02115310503
:100CE00019F0C9010E94E4071A8219821E821D822E
:100CF0001C821B820E94040297FD26C08A30910547
:100D000019F18AA31BA20D811E810F5F1F4FB8012D
:100D1000CE0101960E941B03882361F329813A8149
:100D20008D819E81BE016E5D7F4F820F931F0E9459
:100D300033091E830D83DECF1E821D8262E271E0C5
:100D4000C9010E943309D6CF81EA92E00E940003D4
:100D50004D815E8169817A8186EC92E00E94B401C6
:100D600080E291E00E94000389819A81009709F452
:100D7000FACE0E94E407F7CEE6ECF2E0138212828C
:100D800088EE93E0A0E0B0E084839583A683B783E8
:100D90008AE091E09183808385EC90E09587848759
:100DA00084EC90E09787868780EC90E0918B808B35
:100DB00081EC90E0938B828B82EC90E0958B848B1E
:100DC00086EC90E0978B868B118E128E138E148E8C
:100DD00008952F923F924F925F926F927F928F92DF
:100DE0009F92AF92BF92CF92DF92EF92FF920F93BA
:100DF0001F93CF93DF93CDB7DEB7CA1BDB0B0FB6C4
:100E0000F894DEBF0FBECDBF09942A883988488880
:100E10005F846E847D848C849B84AA84B984C88416
:100E2000DF80EE80FD800C811B81AA81B981CE0F0D
:100E3000D11D0FB6F894DEBF0FBECDBFED010895F2
:100E4000A1E21A2EAA1BBB1BFD010DC0AA1FBB1FCE
:100E5000EE1FFF1FA217B307E407F50720F0A21B40
:100E6000B30BE40BF50B661F771F881F991F1A94AD
:100E700069F760957095809590959B01AC01BD01D7
:100E8000CF010895EE0FFF1F0590F491E02D099416
:100E90000F931F93CF93DF938230910510F482E07C
:100EA00090E0E0916503F091660330E020E0B0E06F
:100EB000A0E0309799F42115310509F44AC0281BA8
:100EC000390B24303105D8F58A819B816115710574
:100ED00089F1FB0193838283FE0111C0408151811E
:100EE0000281138148175907E0F04817590799F410
:100EF000109761F012960C93129713961C933296EA
:100F0000CF01DF91CF911F910F9108950093650359
:100F100010936603F4CF2115310551F042175307A2
:100F200038F0A901DB019A01BD01DF01F801C1CF51
:100F3000EF01F9CF9093660380936503CDCFFE0157
:100F4000E20FF31F81939193225031093983288353
:100F5000D7CF2091630330916403232B41F4209178
:100F600002013091030130936403209363032091C5
:100F70000001309101012115310541F42DB73EB733
:100F80004091040150910501241B350BE09163034E
:100F9000F0916403E217F307A0F42E1B3F0B281710
:100FA000390778F0AC014E5F5F4F2417350748F0E2
:100FB0004E0F5F1F5093640340936303819391939B
:100FC0009FCFF0E0E0E09CCFCF93DF930097E9F074
:100FD000FC01329713821282A0916503B0916603DF
:100FE000ED0130E020E01097A1F420813181820FE3
:100FF000931F20916303309164032817390709F088
:1010000061C0F0936403E0936303DF91CF9108958F
:10101000EA01CE17DF07E8F54A815B819E014115A1
:101020005105B1F7E901FB83EA8349915991C40F56
:10103000D51FEC17FD0761F4808191810296840F22
:10104000951FE90199838883828193819B838A8399
:10105000F0E0E0E012968D919C9113970097B9F51E
:101060002D913C911197CD010296820F931F2091F3
:101070006303309164032817390739F6309751F527
:101080001092660310926503B0936403A093630308
:10109000BCCFD383C28340815181840F951FC81771
:1010A000D90761F44E5F5F4F88819981480F591FBE
:1010B000518340838A819B819383828321153105EB
:1010C00009F0B0CFF0936603E09365039ECFFD0176
:1010D000DC01C0CF13821282D7CFB0E0A0E0E3E7FB
:1010E000F8E00C94EB068C01009751F4CB010E94C0
:1010F00048078C01C801CDB7DEB7E0E10C940707C3
:10110000FC01E60FF71F9C0122503109E217F3079B
:1011100008F49DC0D901CD91DC911197C617D7076E
:1011200098F0C530D10530F3CE01049786179707A4
:1011300008F3C61BD70B2297C193D1936D937C9371
:10114000CF010E94E407D6CF5B01AC1ABD0A4C0167
:101150008C0E9D1EA0916503B0916603512C412C0D
:10116000F12CE12C109731F5809163039091640389
:101170008815990509F05CC04616570608F058C056
:101180008091000190910101009741F48DB79EB7C5
:101190004091040150910501841B950BE817F90754
:1011A00008F055C0F0936403E0936303F901718381
:1011B0006083A0CF8D919C91119712966C9012979D
:1011C00013967C901397A815B90559F56C0142E068
:1011D000C40ED11CCA14DB0420F1AC014A195B090E
:1011E000DA011296159780F06282738251834083F0
:1011F000D9016D937C93E114F10471F0D70113963A
:10120000FC93EE93129776CF22968C0F9D1FF901D7
:1012100091838083F301EFCFF0936603E09365033E
:1012200069CF4816590608F42C017D01D3019ACFE5
:10123000CB010E9448077C01009749F0AE01B8013C
:101240000E942A09C8010E94E407870153CF10E0D9
:1012500000E050CFFB01DC0102C001900D92415033
:101260005040D8F70895FB01DC0101900D92002059
:08127000E1F70895F894FFCFA7
:10127800000067038000000000008602B401E1015D
:10128800D3024402F00136028025000000C20100AA
:101298000D0A003D3D3D2048452054484F4E47200B
:1012A8005541525420424155442052415445203D15
:1012B8003D3D0043686520646F3A2043415520480E
:1012C800494E48004E68616E206E75742064652032
:1012D80063686F6E206361752068696E683A0020E4
:1012E8002031206C616E202D3E203936303020624E
:1012F800707300202032206C616E202D3E20313129
:10130800353230302062707300476975206E75740D
:10131800203E337320646520786163206E68616EB7
:101328002076612063687579656E2073616E672029
:1013380063686520646F2056414E2048414E48003E
:101348000A3E3E3E2043686F6E3A203936303020E0
:10135800627073003E3E3E2043686F6E3A20313122
:101368003532303020627073000A3D3D3D3D3D3DD1
:101378003D3D3D3D3D3D3D3D3D3D3D3D3D3D3D3D95
:101388003D3D3D3D3D3D3D3D3D3D00434855594575
:101398004E2053414E472043484520444F20564154
:1013A8004E2048414E48006361752068696E683A6E
:1013B8002000476975206E7574203E33732064657C
:1013C8002074726F2076652063686520646F2063DF
:1013D80061752068696E68003D3D3D3D3D3D3D3D80
:1013E8003D3D3D3D3D3D3D3D3D3D3D3D3D3D3D3D25
:1013F8003D3D3D3D3D3D3D3D0A0054524F20564543
:101408002043484520444F204341552048494E48F1
:0C141800004461206E68616E3A20000004
:00000001FF
